:100000000C9446000C9465000C9465000C946500FB
:100010000C9465000C94FC010C945B020C9465003C
:100020000C9465000C9465000C94B2010C9465006E
:100030000C9465000C9465000C9465000C946500AC
:100040000C943F0F0C9465000C9465000C946500B3
:100050000C9465000C9465000C9465000C9465008C
:100060000C9465000C9465000C9465000C9465007C
:100070000C9465000C9465000C9465000C9465006C
:100080000C9465000C9465000C94650011241FBE4F
:10009000CFEFD0E1DEBFCDBF12E0A0E0B1E0E4EEF3
:1000A000FFE100E00BBF02C007900D92A835B10739
:1000B000D9F717E0A8E5B2E001C01D92A13BB10756
:1000C000E1F70E9497020C94F00F0C9400000F933C
:1000D0001F9380916602909167026FEF42E020E0EB
:1000E00030E00BE712E00E94AA071092650210921E
:1000F000640280E487BFE0916002F0916102EC5FEE
:10010000FE4F808184BD80916002909161028931AF
:100110009105CCF4809160029091610201969093D8
:100120006102809360028FEF99E6A8E181509040D0
:10013000A040E1F700C00000809160029091610250
:10014000893191053CF31092610210926002809116
:100150008002909181026FEF41E02BE732E00E9434
:10016000D2081F910F9108950F931F9380916802F9
:10017000909169026FEF42E020E030E00BE712E07F
:100180000E94AA0780E487BF81E090E09093650217
:1001900080936402E0916002F0916102EC5FFE4F97
:1001A000818D84BD809160029091610289319105B9
:1001B000CCF480916002909161020196909361026B
:1001C000809360028FEF99E6A8E181509040A040B3
:1001D000E1F700C0000080916002909161028931D6
:1001E00091053CF3109261021092600280918002AE
:1001F000909181026FEF41E02BE732E00E94D2083C
:100200001F910F9108955F926F927F928F929F92AC
:10021000AF92BF92CF92DF92EF92FF920F931F9314
:10022000DF93CF930F92CDB7DEB71BBA80917502E3
:100230009091760260E070E04BE752E00E94C409C2
:10024000DC012D913C9111978EEC9FEF289F70015E
:10025000299FF00C389FF00C1124E8ECF0E0EE0E32
:10026000FF1E00E010E06E010894C11CD11C20E8C4
:10027000622E712CAA24AA9490E5592E86E4B82EF9
:1002800010C080915A0290915B028130910551F12A
:100290008FEF90E7A2E081509040A040E1F700C0CE
:1002A00000000F5F1F4F0E151F055CF380910205C4
:1002B0009091030560E070E04BE752E00E94750BFF
:1002C0001BBAB9828091770290917802B6010E94A0
:1002D000200A80910205909103050E94C00B00E066
:1002E00010E0D6CF8981863499F280917E02909178
:1002F0007F0260E070E04BE752E00E94980ADC0168
:100300008D909C90119710925B0210925A02B7E068
:100310008B169104D1F0809102059091030560E065
:1003200070E04BE752E00E94750B8BB3F30102C003
:10033000F595E7958A94E2F78E0F8BBB80910205C5
:10034000909103050E94C00BA3CF8091020590916C
:10035000030560E070E04BE752E00E94750BABBA1A
:100360005982B0CF1F920F920FB60F920BB60F9219
:1003700011242F933F938F939F93EF93FF9380913B
:100380005E0290915F028130910581F180E188BB2E
:1003900081E090E090935F0280935E02809164021E
:1003A000909165022091600230916102FC01EE0F94
:1003B000FF1FE80FF91FEE0FFF1FEE0FFF1FEE0FDD
:1003C000FF1FE80FF91FE20FF31FEC5FFE4F808164
:1003D00084BDFF91EF919F918F913F912F910F904D
:1003E0000BBE0F900FBE0F901F90189518BA109269
:1003F0005F0210925E02D2CF1F920F920FB60F9241
:100400000BB60F9211242F933F934F935F936F93EB
:100410007F938F939F93AF93BF93EF93FF938091BD
:1004200002059091030560E070E04BE752E00E9406
:10043000750B8091580290915902009709F41BBAEC
:1004400081E090E0909359028093580290935B0270
:1004500080935A02809102019091030188309105A6
:100460008CF4809102019091030101969093030115
:100470008093020180917E0290917F0262E071E0A0
:100480000E94080B80910205909103050E94C00B09
:10049000FF91EF91BF91AF919F918F917F916F915C
:1004A0005F914F913F912F910F900BBE0F900FBE18
:1004B0000F901F9018951F920F920FB60F920BB6C8
:1004C0000F9211242F933F934F935F936F937F93DA
:1004D0008F939F93AF93BF93EF93FF938091020508
:1004E0009091030560E070E04BE752E00E94750BCD
:1004F00081E090E090935D0280935C028091020520
:10050000909103050E94C00BFF91EF91BF91AF91B5
:100510009F918F917F916F915F914F913F912F911B
:100520000F900BBE0F900FBE0F901F901895CF939A
:10053000DF930E943E0CF8948FEF8ABB80E187BB6B
:100540008FEC82B98AE08ABF80E389BF8FB7806869
:100550008FBF17B887E886B983E085BD17BE809145
:100560006402909165022091600230916102FC0169
:10057000EE0FFF1FE80FF91FEE0FFF1FEE0FFF1F1B
:10058000EE0FFF1FE80FF91FE20FF31FEC5FFE4FA6
:10059000808184BD81E090E00E94520B909303051E
:1005A0008093020580E090E00E94A109909376027A
:1005B0008093750280E090E00E94A10990937802F8
:1005C0008093770280E090E00E94A10990937A02E4
:1005D000809379028AE692E064E070E00E943A0A31
:1005E00090937F0280937E02CBE7D2E080E0BE0151
:1005F0000E948207909381028093800280E0BE0176
:100600000E948207909367028093660280E0BE0199
:100610000E948207909369028093680287E693E0C4
:1006200060E070E041E053E021E00E94DF0B87E6EC
:1006300090E060E070E041E853E022E00E94DF0BD0
:1006400084EB90E060E070E041E054E023E00E9441
:10065000DF0B81E494E060E070E041E854E024E0E6
:100660000E94DF0B83E091E060E070E041E055E044
:1006700025E00E94DF0B0E94A50580E090E0DF915D
:10068000CF91089515BAE5E6F0E081E080838FE32D
:100690009FE10197F1F700C0000082E080838FE3C3
:1006A0009FE10197F1F700C0000084E080838FE3B1
:1006B0009FE10197F1F700C0000088E080838FE39D
:1006C0009FE10197F1F700C000001BBA0895EF9277
:1006D000FF920F931F938FEF84BB8FE08093640092
:1006E000EE24E39462E0F62E04E018E080917702B5
:1006F0009091780260E070E04BE752E00E94C409FC
:10070000FC0180818035E9F18CE291E050914D014E
:1007100040913B013091360120914C0155BBE09254
:100720006500EFE3FFE13197F1F700C0000045BB42
:10073000F0926500EFE3FFE13197F1F700C00000B0
:1007400035BB00936500EFE3FFE13197F1F700C09F
:10075000000025BB10936500EFE3FFE13197F1F74F
:1007600000C000000197D1F6809168029091690263
:100770006FEF41E02BE732E00E94D2080E94420373
:10078000B5CF8BE291E050914B0140913701309110
:100790004A012091490155BBE0926500EFE3FFE17A
:1007A0003197F1F700C0000045BBF0926500EFE320
:1007B000FFE13197F1F700C0000035BB0093650001
:1007C000EFE3FFE13197F1F700C0000025BB109384
:1007D0006500EFE3FFE13197F1F700C000000197FA
:1007E000FFEF8F3F9F07B9F68091660290916702F5
:1007F0006FEF41E02BE732E00E94D208BFCF369A7C
:10080000349BFECF24B135B1932F80E030E0282B0C
:10081000392BC901089523E08736920708F008951F
:10082000809102059091030560E070E04BE752E093
:100830000E94750B809100019091010101969093A7
:1008400001018093000180910001909101018430A9
:10085000910581F08FEF91EEA4E081509040A0408F
:10086000E1F700C0000080910205909103050E940D
:10087000C00B089581E090E0909301018093000106
:10088000E9CFDF92EF92FF920F931F93EE24E39450
:10089000E4E0FE2E78E0D72E30C00E94FF030E94D5
:1008A0000B04E0910001F0910101EA5CFE4F8081B0
:1008B00085BBE09265008FE39FE10197F1F700C0EF
:1008C00000008FE39FE10197F1F700C000008091E5
:1008D0004F0185BBF09265008FE39FE10197F1F72F
:1008E00000C0000080914E0185BBD09265008FE36F
:1008F0009FE10197F1F700C0000080915C029091A8
:100900005D028130910549F60E9442038091750293
:100910009091760260E071E00E94200A809180024E
:10092000909181026FEF42E820E030E00BE712E0A7
:100930000E94AA07B2CFFA01808392931292129278
:100940001292129212921292129212921292129287
:100950001292129212921292129212921292129277
:1009600012921292129212921292129262937293B5
:10097000129212921292129212921292129280E893
:1009800082939F0121503040C90108950895089530
:100990000895089508950895089508950895CF93AA
:1009A000DF93FC01A481B5811C961C921E921B97BB
:1009B0001A966C931A971D968C911D978F7D1D9694
:1009C0008C931D97882331F58091E00552969C9178
:1009D0005297892B8093E00550968C915097C82FA1
:1009E000D0E0CF51DA4F888151969C91892B888332
:1009F00081E0C281D381A081B181209791F0B98338
:100A0000A883109721F01396DC93CE931297DF9171
:100A1000CF91089580E0C281D381A081B1812097D8
:100A200071F70680F781E02DB283A183109779F3E7
:100A300013961C921E921297DF91CF910895F8940D
:100A40008091060590910705A0910805B0910905D0
:100A50000196A11DB11D8093060590930705A093F3
:100A60000805B093090578940E94CD04E8CF8091E1
:100A70000505813009F008958091E6058F3FD9F38F
:100A80008F5F8093E605089580910505813009F018
:100A90000895F8948091E605882339F08150809379
:100AA000E605882311F07894089580910405882341
:100AB000D1F7E091E005F0E0E85AFE4F80818093A5
:100AC000E505E82FF0E0EF51FA4FE081F0E0E85A59
:100AD000FE4F880F880F880F9081890F80930A0539
:100AE000909123058917F9F2E82FF0E0EE0FFF1F30
:100AF000ED56F84F808191819093DD058093DC0560
:100B00008091A6059091A705A091A805B091A9058F
:100B10000196A11DB11D8093A6059093A705A093F2
:100B2000A805B093A9050E94080FBDCF80910505C7
:100B3000813009F00895F894809104058F3F19F0F1
:100B40008F5F809304057894089580910505811145
:100B50000895E091E005F0E0E85AFE4FE081AE2F05
:100B6000B0E0AF51BA4FAC91B0E0A85ABE4FEE0F13
:100B7000EE0FEE0F8C91E80FE0930A05E09323054A
:100B8000F0E0EE0FFF1FED56F84F808191819093BA
:100B9000DD058093DC059093E8058093E7050E94CE
:100BA000710E08950E94CA0480910505813009F0F4
:100BB0000895E0912405F091250586858C30C1F3D8
:100BC0004091E00521E030E011C08289482BA089E6
:100BD000B0E0AF51BA4F8C919189892B8C930280F0
:100BE000F381E02D789486858C30B1F0F89483857C
:100BF00094850097A1F3019794878387009779F7ED
:100C0000858583FFE2CF348723870280F381E02D3F
:100C1000789486858C3051F74093E00508958CEFE9
:100C200090E008950F931F93CF93DF93FC01118100
:100C3000A12FB0E0A85ABE4F8C91282F30E0D901E7
:100C4000A05BBE4F0C91EF01C20FD31F5E81A52F99
:100C5000B0E0A85ABE4F9C91A92FB0E0A05BBE4F58
:100C6000AC91880F880F880F890F9A2F9095952344
:100C70009E83992321F4902F909591239183E82FBF
:100C8000F0E0EE0FFF1FED56F84F0190F081E02DE0
:100C90001486138617821682718760874095958522
:100CA00049234587442359F49091E005902B909374
:100CB000E005F901EF51FA4F90819A2B9083DF9173
:100CC000CF911F910F910895CF93DF93DC01E091B5
:100CD000E705F091E805978386838089682F70E0A7
:100CE0003189CB018F519A4F232F2095EC014881F8
:100CF00024232883222339F4928990958091E0055A
:100D000089238093E005EB01CA0FDB1F8E81832BC3
:100D10008E8311968C9111979289892B11968C93C1
:100D20001197DF91CF910895CF93DF93DC01E0918C
:100D3000E705F091E8058089ED01C80FD11D818993
:100D400080959E8189238E83882349F4928990958A
:100D500011968C911197892311968C931197158672
:100D600017821682DF91CF910895FC0111821682BD
:100D700017820895F8948091E6058823F1F5809113
:100D800004058823D1F5E091E005F0E0E85AFE4F34
:100D90008081E82FF0E0EF51FA4FE081F0E0E85A6F
:100DA000FE4F880F880F880F9081890F80930A0566
:100DB00090912305891709F1E82FF0E0EE0FFF1F4E
:100DC000ED56F84F808191819093DD058093DC058D
:100DD0008091A6059091A705A091A805B091A905BD
:100DE0000196A11DB11D8093A6059093A705A09320
:100DF000A805B093A9050E94A50E78940895809146
:100E00000505813009F00895F89480910405882340
:100E100059F0815080930405882321F48091E605E0
:100E2000882321F0789408957894089578940E9406
:100E3000BA0608951F93CF93DF93182FF894C091AB
:100E4000AE05D091AF05209709F456C02A813B81A9
:100E50003093AF052093AE057894798368838E87AD
:100E60001D861C861B86A82FA695A695A695A88BE1
:100E7000B0E0A05BBE4F8C918A8BA12FA770AF878B
:100E8000B0E0A05BBE4F8C91898B1F821E821986B9
:100E90001886CE010E94CE04CE010E94C604F894AA
:100EA000E12FF0E0EE0FFF1FED56F84FD183C08326
:100EB000E0912405F0912505FB83EA831D821C82C5
:100EC000309711F0D583C483D0932505C0932405B2
:100ED0008091E0059A89892B8093E005E889F0E00C
:100EE000EF51FA4F80819989892B8083789480E033
:100EF000DF91CF911F910895789486E4DF91CF918F
:100F00001F9108959091E6059923E9F4F894E091F2
:100F10009007F0919107309781F0218132813093D1
:100F200091072093900795E090838383128211822A
:100F30007894DB011C92CF01089578948AE9DB0153
:100F40008C93CF0108958DE8DB018C93E0E0F0E015
:100F5000CF010895EF92FF920F931F93DF93CF93EA
:100F6000CDB7DEB72C970FB6F894DEBF0FBECDBF5E
:100F70007C018091E6058823D9F447FDCCC050E080
:100F8000F894423009F45CC04330B9F0789487E9B2
:100F9000F801808380E02C960FB6F894DEBF0FBE78
:100FA000CDBFCF91DF911F910F91FF90EF900895EA
:100FB00082E0D8018C9380E0EECFF7018381962FF9
:100FC000982309F0ABC0E091E705F091E80585852D
:100FD000806285873487238769874A87FE83ED830C
:100FE000D70111969C91119712968C9199838A83BF
:100FF0001C821B82F886EF82A92FB82F109709F464
:10100000CEC0CE01019613969C938E931297D70172
:1010100012969C938E931197A089B0E0AF51BA4F6E
:10102000818980959C9189238C93882339F49289B6
:1010300090958091E00589238093E005789443C0E2
:10104000F7018381962F9823961709F470C0E091D9
:10105000E705F091E80585858062858734872387D9
:1010600069874A87FE83ED83D70111969C9111977A
:1010700012968C9199838A831C821B82F886EF8258
:10108000A92FB82F109709F46CC0CE0101961396C2
:101090009C938E931297D70112969C938E931197DF
:1010A000A089B0E0AF51BA4F818980959C91892386
:1010B0008C93882339F4928990958091E005892357
:1010C0008093E00578944C875B870E94BA06F89479
:1010D000E091E705F091E80585854C855B8585FF06
:1010E0002CC08B819C8129813A81009709F43CC0F6
:1010F000DC0111963C932E932115310529F0D9017D
:1011000013969C938E931297158678948AE0F80133
:10111000808380E040CF4F7751E032CF513019F4D7
:101120009095892383837894D8011C9234CF5130D1
:1011300071F07894D8011C922ECF513061F0D70114
:1011400013968C9113977894F801108224CF6095B0
:1011500086238383EECF42504230B0F0F701838183
:10116000F2CFCE01019697CF8F819885DC01129640
:101170003C932E9311972115310531F2D901139625
:101180001C921E921297C0CF82858095D70113962C
:101190009C911397892313968C931397D4CFCE01E8
:1011A000019635CFCF92DF92EF92FF920F931F936C
:1011B000DF93CF930F92CDB7DEB76C017901F8942E
:1011C000442309F054C06095FC0183818623838306
:1011D000F601018112810115110509F458C0198227
:1011E0000AC08330D9F0F80190818181092F182F2E
:1011F0000115110541F1F8018185823091F7F8015F
:101200006085F60183818623681769F7C8010E940B
:10121000CF04813041F7F1E0F983E5CFF801608533
:10122000F60183816823F9F2C8010E94CF0481305E
:10123000D1F681E08983F80190818181092F182FEF
:1012400001151105C1F67894F981F130E9F0F894AF
:10125000F60183817894F70110820F90CF91DF918E
:101260001F910F91FF90EF90DF90CF900895413044
:1012700031F0789489E9F901808380E0EECFFC01B8
:101280008381862B8383A4CF0E94BA06E0CF198284
:10129000DACF8BE095E010920B059C012C5F3F4F5D
:1012A00030930D0520930C0510920F059C01285FCB
:1012B0003F4F3093110520931005109213059C01A8
:1012C000245F3F4F309315052093140510921705A6
:1012D0009C01205F3F4F3093190520931805109211
:1012E0001B059C012C5E3F4F30931D0520931C0570
:1012F00010922105109220059093910780939007FA
:101300000895CF93DF93EC01AA81BB81E881F98135
:10131000109751F01196FC93EE93309711F0B38330
:10132000A283DF91CF910895AE81BF811296FC9385
:10133000EE9311973097A9F313821282DF91CF9128
:1013400008952091E6052223D9F4F894E091E3056D
:10135000F091E405309731F0248135813093E40534
:101360002093E3057894309749F021E0208313829D
:10137000128295838483118216821782CF01089589
:10138000E0E0F0E0CF010895EF92FF920F931F93FA
:10139000DF93CF9300D0CDB7DEB77C018091E60517
:1013A0008823B1F4F894F701048115810115110522
:1013B000A9F0158214827894DA011C92C8010F906A
:1013C0000F90CF91DF911F910F91FF90EF900895B3
:1013D00082E0DA018C9300E010E0F0CFE091E705C5
:1013E000F091E80585858260858774876387C701EA
:1013F00049835A830E94640678940E94BA06F8943E
:10140000E091E705F091E8050085118549815A8151
:101410000115110549F0118610861586178216826E
:101420007894FA011082CACFC70149835A830E9477
:10143000940678948AE049815A81DA018C93BECF70
:10144000FC01F8948181882339F484819581009787
:1014500061F0789484E10895CF0142E00E94120681
:1014600078940E94BA0680E0089575836483789426
:1014700080E008952091E605222309F047C0F89402
:10148000E091E305F091E405309731F02481358156
:101490003093E4052093E30578943097A9F1F8940C
:1014A000A091DE05B091DF051097A1F12D913C913F
:1014B00011973093DF052093DE05789413969C9363
:1014C0008E9312979B01220F331F280F391F1596F9
:1014D0003C932E93149717969C938E931697199678
:1014E0009C938E9318971B967C936E931A971D96D8
:1014F0001C921E921C9782E0808313821282B58315
:10150000A483118216821782CF010895E0E0F0E0F3
:10151000CF0108958091E3059091E405958384833C
:10152000F093E405E093E3057894E0E0F0E0ECCF9D
:10153000EF92FF920F931F93CF93DF93EC017A0109
:101540008091E605882309F04EC0F894EC81FD8176
:10155000848595850097C9F0A085B1850D911D9171
:10156000B187A08701979587848784819581A81783
:10157000B907A1F17894F7011082C801DF91CF91EA
:101580001F910F91FF90EF900895E091E705F09182
:10159000E80585858460858774876387CE010E940E
:1015A000640678940E94BA06F894E091E705F091F9
:1015B000E805008511850115110511F111861086C8
:1015C0001586178216827894F7011082C801DF9180
:1015D000CF911F910F91FF90EF9008958281938199
:1015E00091878087C7CF82E0FA01808300E010E016
:1015F000C801DF91CF911F910F91FF90EF90089557
:10160000CE010E94940678948AE0F7018083B5CFDA
:10161000FC01F89481818823F1F40480F581E02DA8
:1016200084859585228533858217930718F07894F1
:101630008EE10895A681B7816D937D93B783A683CC
:1016400001969587848784819581A817B90761F0F1
:10165000789480E00895CF0144E00E9412067894C7
:101660000E94BA0680E008958281938197838683E1
:10167000EFCF82EB95E09C01225F3F4F3093B305A3
:101680002093B2059C01245E3F4F3093C105209307
:10169000C0051092CF051092CE059093DF05809380
:1016A000DE0508952091E6052223D9F4F894E0910F
:1016B000E305F091E405309731F0248135813093D2
:1016C000E4052093E3057894309749F023E02083E4
:1016D0009383828315821482118216821782CF012E
:1016E0000895E0E0F0E0CF0108950F931F93CF93AA
:1016F000DF93EC018A018091E605882389F5F8944F
:101700008A819B81009759F001979B838A83789403
:10171000FA011082DF91CF911F910F910895E0910E
:10172000E705F091E8058585816085877487638783
:10173000CE010E94640678940E94BA06F894E09163
:10174000E705F091E805858580FD12C017821682B5
:101750007894F8011082DF91CF911F910F91089535
:1017600082E0FA018083DF91CF911F910F9108955C
:10177000CE010E94940678948AE0F8018083CACF53
:10178000FC01F8948181882379F4828193812FEF81
:101790008F3F920731F0019693838283789480E0A3
:1017A0000895789482E30895CF0160E070E041E00D
:1017B0000E94120678940E94BA0680E008958F92E3
:1017C0009F92AF92BF92CF92DF92EF92FF920F93D0
:1017D0001F93DF93CF930F92CDB7DEB7122FF894FC
:1017E000822E9924880C991C23E937E0820E931EDF
:1017F000F401208131812115310581F0789488E24E
:101800000F90CF91DF911F910F91FF90EF90DF909C
:10181000CF90BF90AF909F908F90089521E030E0DF
:1018200031832083789420E030E00E949B04BC0147
:10183000812F40E050E020E030E0EE24FF248701DB
:10184000CC24DD24AA24BB240E941A07882381F417
:10185000F8949091B1059F5F9093B1057894909121
:101860000505913069F689830E94BA068981C8CF3F
:10187000F894F401118210827894C2CF0E94CB04B4
:101880001092E605109204051092B105109205051C
:101890001092A6051092A7051092A8051092A9050E
:1018A000109206051092070510920805109209057E
:1018B0001092E0051092E1051092E20510922305C6
:1018C00010920A051092DD051092DC051092E805D1
:1018D0001092E7051092250510922405E3E9F7E040
:1018E0001192119227E0ED3AF207D1F78CEA96E0D7
:1018F000FC01719791838083439627E0803992079A
:10190000B9F71092800710927F0789E996E09093CB
:10191000AF058093AE0589E696E0109269069C01BA
:10192000285F3F4F30936E0620936D06109271062C
:101930009C01205F3F4F30937606209375061092EE
:1019400079069C01285E3F4F30937E0620937D06EA
:10195000109281069C01205E3F4F309386062093B3
:101960008506109289069C01285D3F4F30938E06B4
:1019700020938D061092910610929606109295066D
:101980009093E4058093E3058BE095E010920B05BE
:101990009C012C5F3F4F30930D0520930C05109256
:1019A0000F059C01285F3F4F3093110520931005D0
:1019B000109213059C01245F3F4F3093150520932F
:1019C0001405109217059C01205F3F4F30931905B5
:1019D0002093180510921B059C012C5E3F4F3093FD
:1019E0001D0520931C05109221051092200590934F
:1019F00091078093900782EB95E09C01225F3F4F17
:101A00003093B3052093B2059C01245E3F4F309381
:101A1000C1052093C0051092CF051092CE0590937A
:101A2000DF058093DE058FE195E060E070E048E639
:101A300056E02CE00E94DF0B8FE49DE060E070E058
:101A400045EA55E02BE00E94DF0B0E94CC0408958C
:101A5000009721F1F894A091E705B091E805509620
:101A6000EC915097F0E0EF51FA4F51962C9151972D
:101A70002095308123232083222349F452963C91E0
:101A8000529730952091E00523232093E0051C9682
:101A90009C938E931B9778940E94BA0608958F9218
:101AA0009F92AF92BF92DF92EF92FF920F931F939C
:101AB00080919207882341F488EC90E00E94280DE1
:101AC000809192078823C1F36091AA057091AB05BC
:101AD0008091AC059091AD0524E630E040E050E007
:101AE0000E94CE0F79018A01A4E68A2E912CA12CA6
:101AF000B12CF4E6DF2E10C0A80197010E94CE0F92
:101B00008D2D821B87FD40C08093B0050E94C904C3
:101B100084E690E00E94280DF8948091060590914B
:101B20000705A0910805B09109058093AD07909332
:101B3000AE07A093AF07B093B00760910605709110
:101B400007058091080590910905109206051092ED
:101B5000070510920805109209057894E114F10424
:101B60000105110549F61092B0056091AA05709122
:101B7000AB058091AC059091AD05A50194010E9443
:101B8000CE0F79018A01C2CF1092B005BFCF82E09B
:101B900090E00E94280DF894109206051092070517
:101BA0001092080510920905789484E690E00E944E
:101BB000280DF8948091060590910705A0910805DD
:101BC000B09109058093AA059093AB05A093AC054D
:101BD000B093AD0581E080939207789408958F9239
:101BE0009F92AF92BF92CF92DF92EF92FF920F93AC
:101BF0001F93182FC62E042F8823B9F08C2D8C33F9
:101C0000E8F40C3380F483E0283E3807C8F083E51D
:101C10001F910F91FF90EF90DF90CF90BF90AF900A
:101C20009F908F90089582E5F3CF662339F7442380
:101C300041F72115310539F784E5EACF81E5E8CF91
:101C400044E650E00E94A00F6C507E4F8F4F9F4F94
:101C500028EE33E040E050E00E94CE0F49015A01E7
:101C60006C2D70E080E090E02CE330E040E050E04C
:101C70000E94AF0F6B017C01C00ED11CE11CF11C56
:101C8000612F70E080E090E020E13EE040E050E035
:101C90000E94AF0FC60ED71EE81EF91EC701B6017F
:101CA00024E630E040E050E00E94AF0F860E971E21
:101CB000A81EB91E8501D501C401A070B0700E9494
:101CC000280DA114B10459F080E090E80E94280D7D
:101CD00080E090E80E94280D01501040A9F780E0B4
:101CE00097CF0E94C8040091050503950093050550
:101CF000E091DC05F091DD05C191CDBFD191DEBF52
:101D00000F910FBF0F910BBFFF91EF91DF91CF911B
:101D1000BF91AF919F918F917F916F915F914F9103
:101D20003F912F911F910F91FF90EF90DF90CF90F7
:101D3000BF90AF909F908F907F906F905F904F90EB
:101D40003F902F901F900F9008950F921F922F9207
:101D50003F924F925F926F927F928F929F92AF923B
:101D6000BF92CF92DF92EF92FF920F931F932F9328
:101D70003F934F935F936F937F938F939F93AF9313
:101D8000BF93CF93DF93EF93FF930BB70F930FB7EF
:101D90000F93E091E705F091E805CDB7C193DEB769
:101DA000D1930E94C80400910A0500932305E09195
:101DB000DC05F091DD05E093E705F093E805C191BE
:101DC000CDBFD191DEBF0F910FBF0F910BBFFF9120
:101DD000EF91DF91CF91BF91AF919F918F917F91C3
:101DE0006F915F914F913F912F911F910F91FF90B4
:101DF000EF90DF90CF90BF90AF909F908F907F90AB
:101E00006F905F904F903F902F901F900F9008958C
:101E10000E94C80400910A0500932305E091DC05A7
:101E2000F091DD05E093E705F093E805C191CDBFA2
:101E3000D191DEBF0F910FBF0F910BBFFF91EF91BB
:101E4000DF91CF91BF91AF919F918F917F916F91D2
:101E50005F914F913F912F911F910F91FF90EF90C4
:101E6000DF90CF90BF90AF909F908F907F906F90BA
:101E70005F904F903F902F901F900F9008950F927A
:101E80001F922F923F924F925F926F927F928F920A
:101E90009F92AF92BF92CF92DF92EF92FF920F93F9
:101EA0001F932F933F934F935F936F937F938F93E2
:101EB0009F93AF93BF93CF93DF93EF93FF930BB7B2
:101EC0000F930FB700680F930091E60503950093F9
:101ED000E605013041F4CDB7DEB7E091E705F091BA
:101EE000E805C193D19304E602BF78940E94D2051D
:101EF00000000E9444050F910FBF0F910BBFFF918F
:101F0000EF91DF91CF91BF91AF919F918F917F9191
:101F10006F915F914F913F912F911F910F91FF9082
:101F2000EF90DF90CF90BF90AF909F908F907F9079
:101F30006F905F904F903F902F901F900F9008955B
:101F4000539FC001429FB001529F700D811D11240B
:101F5000911D349F700D811D1124911D0895629F64
:101F6000D001739FF001829FE00DF11D649FE00D91
:101F7000F11D929FF00D839FF00D749FF00D659FF2
:101F8000F00D9927729FB00DE11DF91F639FB00DF1
:101F9000E11DF91FBD01CF0111240895A1E21A2E00
:101FA000AA1BBB1BFD010DC0AA1FBB1FEE1FFF1FFD
:101FB000A217B307E407F50720F0A21BB30BE40B4D
:101FC000F50B661F771F881F991F1A9469F7609594
:101FD0007095809590959B01AC01BD01CF0108954E
:041FE000F894FFCFA3
:101FE4000100FFFF6142426142112B422B11426109
:101FF40011611161116142612B4D422B1142424228
:1020040042424D4D422B2B2B4D7261424242424281
:102014004D72614D422B3F065B4F666D7D277F6F8E
:10202400777C395E79718040083C1E5438790731D9
:102034000102040810204080000001000200010099
:10204400030001000200010004000100020001007D
:10205400030001000200010005000100020001006C
:10206400030001000200010004000100020001005D
:10207400030001000200010006000100020001004B
:10208400030001000200010004000100020001003D
:10209400030001000200010005000100020001002C
:1020A400030001000200010004000100020001001D
:1020B400030001000200010007000100020001000A
:1020C40003000100020001000400010002000100FD
:1020D40003000100020001000500010002000100EC
:1020E40003000100020001000400010002000100DD
:1020F40003000100020001000600010002000100CB
:1021040003000100020001000400010002000100BC
:1021140003000100020001000500010002000100AB
:10212400030001000200010004000100020001009C
:0821340003000100020001009C
:00000001FF
